:020000002100DD
:100100007411F5901202007421F5907901E912033F
:1001100000740AF590120200740CF5907904E9124B
:0401200003002100B7
:0D0200007D147E647F64DFFEDEFADDF622F1
:1003000078207C647580FFE828FBE9F5A090034124
:10031000EB1B93F5807D0A7E147F14DFFEDEFADD91
:10032000F67580FFE923F5A0900341EB1B93F58060
:100330007D0A7E147F14DFFEDEFADDF6DCC6D8C24D
:1003400022C0C0C0F9C0A4C0B0C099C092C082C0D1
:10035000F8C080C090C0C0F9F9F9A4F9B0F999F9D2
:1003600092F982F9F8F980F990F9C0A4F9A4A4A44B
:10037000B0A499A492A482A4F8A480A490A4C0B02C
:00000001FF
