:020000002100DD
:03000300020300F5
:100100007580FF75A0007590FF758160C28875B815
:1001100001D2AFD2A8790178057C00B908FD75A09D
:10012000007580FF7408F5A0EC75F00A849003E474
:1001300093F5807D0A7E017F14DFFEDEFADDF67422
:1001400010F5A0E5F09003E493F5807D0A7E017F31
:0901500014DFFEDEFADDF6211ECB
:10030000E590F460231203DBE590F4601B20E0220B
:1003100020E13420E24620E35820E46A20E50A2068
:10032000E60A20E70A0203283202039B0203B10215
:1003300003C6E9F5A09003E474012CFC740193F565
:1003400080E923F9020328E9F5A09003E474022C64
:10035000FC740293F580E923F9020328E9F5A090E3
:1003600003E474032CFC740393F580E923F902037E
:1003700028E9F5A09003E474042CFC740493F58040
:10038000E923F9020328E9F5A09003E474052CFCA5
:10039000740593F580E923F9020328E9F9F5A090A3
:1003A00003E474062CFC740693F580E923F9020338
:1003B00028E9F5A09003E474072CFC740793F580FA
:1003C000E923F9020328E9F5A09003E474082CFC62
:1003D000740893F580E923F90203287FFA7EFADE98
:0E03E000FEDFFA22C0F9A4B0999282F8809054
:00000001FF
